:020000040800F2
:10000000D03200206502000867110008391000088E
:10001000651100085B0400082513000800000000BB
:100020000000000000000000000000006D1100084A
:100030005D0400080000000069110008711100084B
:100040007F0200087F0200087F0200087F0200088C
:100050007F0200087F0200087F0200087F0200087C
:100060007F0200087F0200087F0200087F0200086C
:100070007F0200087F0200087F0200087F0200085C
:100080007F0200087F0200087F0200087F0200084C
:100090007F0200087F0200087F0200087F0200083C
:1000A0007F0200087F0200087F0200087F0200082C
:1000B0007F0200087F020008D51100087F020008B7
:1000C0007F0200087F0200087F0200087F0200080C
:1000D0007F0200087F0200087F0200087F020008FC
:1000E0007F0200087F0200087F0200087F020008EC
:1000F0007F0200087F0200087F0200087F020008DC
:100100007F0200087F0200087F0200087F020008CB
:100110007F0200087F0200087F0200087F020008BB
:100120007F0200087F0200087F0200087F020008AB
:1001300000F002F800F03AF80AA090E8000C8244BF
:100140008344AAF10107DA4501D100F02FF8AFF29C
:10015000090EBAE80F0013F0010F18BFFB1A43F0A5
:100160000103184790220000B0220000103A24BF7B
:1001700078C878C1FAD8520724BF30C830C144BF0C
:1001800004680C607047000000230024002500264E
:10019000103A28BF78C1FBD8520728BF30C148BFEA
:1001A0000B6070471FB51FBD10B510BD00F01BF9E7
:1001B0001146FFF7F7FF01F0C7F800F039F903B473
:1001C000FFF7F2FF03BC00F041F90000224B196871
:1001D0000868B0E8F00F80F30988BFF36F8F4FF025
:1001E000000080F311884EF00D0E704700000000F3
:1001F00006480068006880F3088862B661B6BFF3FD
:100200004F8FBFF36F8F00DF00BF00BF08ED00E02E
:10021000EFF30980BFF36F8F0F4B1A6820E9F00FDF
:10022000106008B54FF0100080F31188BFF34F8FB6
:10023000BFF36F8F01F08EFD4FF0000080F3118847
:10024000BDE8084019680868B0E8F00F80F3098835
:10025000BFF36F8F704700BF10000020EFF30580E1
:10026000704700000948804709480047FEE7FEE75D
:10027000FEE7FEE7FEE7FEE7FEE7FEE7FEE7FEE756
:1002800004480549054A064B70470000D311000891
:1002900031010008D02C0020D0320020D02E0020C8
:1002A000D02E0020032A40F2308010F0030C00F022
:1002B000158011F8013BBCF1020F624498BF11F8A0
:1002C00001CB00F8013B38BF11F8013BA2F1040259
:1002D00098BF00F801CB38BF00F8013B11F00303D1
:1002E00000F04F80083AC0F0088051F8043B083A0B
:1002F00051F804CBA0E80810F5E7121D5CBF51F8D7
:10030000043B40F8043BAFF30080D20724BF11F850
:10031000013B11F801CB48BF11F8012B24BF00F8B5
:10032000013B00F801CB48BF00F8012B70474FF0AC
:10033000000200B5134694469646203922BFA0E835
:100340000C50A0E80C50B1F12001BFF4F7AF090741
:1003500028BFA0E80C5048BF0CC05DF804EB890032
:1003600028BF40F8042B08BF704748BF20F8022B75
:1003700011F0804F18BF00F8012B7047704770478D
:10038000704710B5203AC0F00B80B1E81850203A01
:10039000A0E81850B1E81850A0E81850BFF4F5AF25
:1003A0005FEA027C24BFB1E81850A0E8185044BFAF
:1003B00018C918C0BDE810405FEA827C24BF51F81C
:1003C000043B40F8043B08BF7047D20728BF31F810
:1003D000023B48BF11F8012B28BF20F8023B48BF61
:1003E00000F8012B7047754600F02CF8AE4605006A
:1003F0006946534620F00700854618B020B5FFF740
:100400003FFFBDE820404FF000064FF000074FF0DF
:1004100000084FF0000B21F00701AC46ACE8C00922
:10042000ACE8C009ACE8C009ACE8C0098D4670472B
:1004300010B50446AFF300802046BDE81040FFF73A
:10044000BEBE000000487047702C002001491820F3
:10045000ABBEFEE7260002007047FEE7704772B6AB
:10046000FEE700002DE9F84FDFF8C8910024A9F15C
:10047000040B23460F2709F1040AABF1040ED1E067
:100480000125A54006EA0502AA4276D1DFF8A8C1F7
:100490004E68A6EB0C0866452BD00DDC032E34D03D
:1004A00005DC36B3012E19D0022E2FD11BE0112E00
:1004B00016D0122E2AD119E0B8F5881F19D006DC03
:1004C000B8F5803F15D0B8F5801F1FD111E0B8F501
:1004D000001F0ED0B8F5041F18D10AE0CB6815E054
:1004E000CB681B1D12E0CB6808330FE0CB680C33E0
:1004F0000CE08B682BB1012B4FF0080303D0456152
:1005000004E0042302E0056100E00023FF2A01D893
:10051000064601E000F104064FEA840501D9A5F181
:100520002005D6F8008007FA05FC28EA0C0803FA33
:1005300005F548EA0508C6F800804D68ED0070D55D
:100540003E4DAE6946F00106AE61AD6924F003068A
:1005500005F0010500953A4D06EB050CDCF8085056
:10056000A607360F07FA06F825EA0805DFF8D48053
:10057000404503D14FF0000825E052E0DFF8C88085
:10058000404502D14FF001081DE0DFF8C080404532
:1005900002D14FF0020816E0DFF8B480404502D1E6
:1005A0004FF003080FE0DFF8AC80404502D14FF078
:1005B000040808E0DFF8A080404502D14FF00508AC
:1005C00001E04FF0060808FA06F848EA0508CCF8FA
:1005D00008804D68D9F80060ED024D4601D51643FC
:1005E00000E096432E604D68DAF80060AD02554693
:1005F00001D5164300E096432E604D68DBF800609D
:10060000AD035D4601D5164300E096432E604D686C
:10061000DEF80060ED03754601D5164300E0964311
:100620002E60641C0A681646E2407FF429AFBDE8DC
:10063000F88F000008040140000011100010024073
:100640000000014000080140000C01400010014082
:100650000014014000180140001C01400AB1016172
:1006600070470904FBE700000148806870470000FC
:1006700000000020024881680278114481607047C0
:1006800000000020074810B5016841F0100101602A
:10069000032000F0A1F80F2000F006F800F050F859
:1006A000002010BD0020024030B505461F4887B02D
:1006B000C16941F00401C161C06906A900F00400EC
:1006C000009001A800F030F90498B0B100F04CF9A6
:1006D00040001749174AB0FBF1F11748491E026064
:1006E000416040F2E7320021C0E90321816081616D
:1006F00000F012FB040003D015E000F035F9E8E744
:100700000D4800F037FB04000DD11E2000F036F834
:10071000102D07D2002229461E2000F03DF8074880
:10072000056000E0012407B0204630BD0010024003
:1007300040420F0000080040CC00002004000020D0
:100740000C4808B5816941F001018161816901F0BE
:1007500001010091C16941F08051C161C06900F09F
:10076000805000900448416821F0E06141F0007140
:10077000416008BD0010024000000140002809DB74
:1007800000F01F02012191404009800000F1E020AB
:10079000C0F8001170470000F0B40E4B1B680C4607
:1007A000C3F30223C3F10705042D00D90425191D45
:1007B000072901D2002300E0DB1E012606FA05F11D
:1007C000491E214099409E40761E16403143F0BCA0
:1007D00000F0A9BD0CED00E0064900F00702086832
:1007E0004FF6FF03184040EA0220034A1043086016
:1007F000704700000CED00E00000FA052DE9F0471D
:100800000F46050061D0434E306800F00700B84243
:1008100009D2306820F0070038433060306800F0BB
:100820000700B84251D128683B4C810712D54007D8
:1008300003D5606840F4E06060602878000703D565
:10084000606840F4605060606068A96820F0F00063
:10085000084360602878C00728D06868012810D055
:100860002168022810D0890700292EDA616821F05A
:10087000030101436160FFF7F7FE804641F28839CA
:100880000DE021688903EFE78901EDE7FFF7ECFE52
:10089000A0EB0801494502D90320BDE8F087606854
:1008A000696800F00C00B0EB810FEFD1306800F008
:1008B0000700B8420BD9306820F007003843306099
:1008C000306800F00700B84201D00120E5E7287841
:1008D000400705D56068E96820F4E060084360607F
:1008E0002878000706D56068296920F4605040EA3E
:1008F000C100606000F058F86168084AC1F3031154
:10090000515CC8400649086006480068FFF7CCFE05
:100910000020C2E70020024000100240DA23000855
:100920000C000020040000200F2202600C4A5368D3
:1009300003F003034360536803F0F00383605368DC
:1009400003F4E063C36052684FF4E06303EAD20249
:1009500002610448006800F007000860704700006A
:100960000010024000200240044805490068496820
:10097000044AC1F30221515CC84070470C000020BA
:1009800000100240EA23000804480549006849684D
:10099000044AC1F3C221515CC84070470C000020DA
:1009A00000100240EA2300080E4A51680E4801F088
:1009B0000C03042B11D0082B0FD10C48C1F3834337
:1009C000C903C05C0AD55168084AC1F34041921E70
:1009D000515C054A5043B0FBF1F07047044948436D
:1009E000704700000010024000127A00CA2300087D
:1009F00000093D002DE9F84F040070D02078C04D6B
:100A0000C00749D06868C0F38100012807D0686832
:100A1000C0F38100022809D16868C00306D52868A0
:100A2000800339D560680028E7D035E06068B0F50C
:100A3000803F0BD010B1B0F5A02F11D0286820F462
:100A400080302860286820F4802002E0286840F484
:100A500080302860606890B1FFF706FE06460AE025
:100A6000286840F480202860F0E700BFFFF7FCFD15
:100A7000801B642873D828688003F7D50CE0FFF743
:100A8000F3FD064605E000BFFFF7EEFD801B64287E
:100A9000F0D828688003F7D420789A4E80074FF06A
:100AA00001094FF0000839D5686810F00C0F07D025
:100AB0006868C0F38100022809D16868C00306D4C1
:100AC0002868800714D52069012808D110E0206922
:100AD000B0B1C6F80090FFF7C7FD074605E00AE190
:100AE000FFF7C2FDC01B0228C4D828688007F7D5CD
:100AF0002868616920F0F80040EAC10028600DE034
:100B0000C6F80080FFF7B0FD074604E0FFF7ACFD34
:100B1000C01B022823D828688007F7D42078000754
:100B20002CD57948A169D9B1C0F80090FFF79CFD98
:100B3000074604E0FFF798FDC01B02280FD8686A3B
:100B40008007F7D571484FF4FA510068B0FBF1F017
:100B5000009000BF0098411E0091FAD20EE080E0A4
:100B6000C0F80080FFF780FD074604E0FFF77CFD3A
:100B7000C01B022875D8686A8007F7D42078400720
:100B800060D5E8690027C00008D4E86940F08050CB
:100B9000E861E869012700F0805000905C48016836
:100BA000C90513D40168834641F480710160FFF7E1
:100BB0005BFD824606E000BFFFF756FDA0EB0A0092
:100BC00064284ED8DBF80000C005F5D5E0680128A0
:100BD0000AD008B1052813D0286A20F00100286245
:100BE000286A20F0040002E0286A40F00100286230
:100BF000E06841F2883B98B1FFF736FD82460BE092
:100C0000286A40F004002862EEE700BFFFF72CFDE1
:100C1000A0EB0A0159455AD8286A8007F6D50CE09E
:100C2000FFF722FD824605E0FFF71EFDA0EB0A015B
:100C300059454CD8286A8007F6D41FB1E86920F0DE
:100C40008050E861E06988B36968C1F381010229D5
:100C500044D00228C6F8608004D0FFF705FD0446A2
:100C600038E034E0FFF700FD074604E0FFF7FCFC46
:100C7000C01B02282BD828688001F7D4206AB0F561
:100C8000803F05D16868A16820F40030084368609F
:100C9000D4E908010843696821F4741108436860C5
:100CA000C6F86090FFF7E0FC044606E025E000BFD0
:100CB000FFF7DAFC001B022809D828688001F7D565
:100CC0001BE000BFFFF7D0FC001B022802D9032065
:100CD000BDE8F88F28688001F4D40EE00128F7D031
:100CE0006868226A00F48031914204D1616A00F49C
:100CF0007010884201D00120EAE70020E8E70000F8
:100D00000010024000004242800442420C000020D9
:100D1000007000407047704710B5040003D094F88D
:100D20003D0010B107E0012010BD002084F83C0018
:100D3000204600F01EF8022084F83D00211D2068A6
:100D400000F04EFA012084F8460084F83E0084F852
:100D50003F0084F8400084F8410084F8420084F8A1
:100D6000430084F8440084F8450084F83D000020E6
:100D700010BD704790F83D10012901D00120704747
:100D8000022180F83D100168CA6842F00102CA6081
:100D900000680E4988420ED00D4988420BD0B0F150
:100DA000804F08D00B49884205D00B49884202D0B9
:100DB0000A49884204D1816801F00701062903D05D
:100DC000016841F00101016000207047002C0140E2
:100DD000003401400004004000080040000C0040C6
:100DE000704770B50446006801694FF00005C943BB
:100DF000890715D4C168C943890711D4E91E016167
:100E000001202077206880698007204602D0FFF704
:100E1000E7FF04E000F098F8204600F096F8257708
:100E200020680169C943490717D4C168C943490704
:100E300013D46FF0040101610220207720688069DB
:100E400010F4407F204602D0FFF7CAFF04E000F014
:100E50007BF8204600F079F8257720680169C943BE
:100E6000090716D4C168C943090712D46FF00801F5
:100E70000161042020772068C0698007204602D0E5
:100E8000FFF7AEFF04E000F05FF8204600F05DF8E9
:100E9000257720680169C943C90617D4C168C943C9
:100EA000C90613D46FF01001016108202077206873
:100EB000C06910F4407F204602D0FFF791FF04E0A4
:100EC00000F042F8204600F040F8257720680169DC
:100ED000C943C90708D1C168C943C90704D1891EDC
:100EE0000161204600F032F820680169C943090613
:100EF00009D4C168C943090605D46FF080010161B6
:100F00002046FFF707FF20680169C943490609D455
:100F1000C168C943490605D46FF04001016120460C
:100F200000F01EF820680169C94389060BD4C16826
:100F3000C943890607D46FF0200101612046BDE84E
:100F40007040FFF7E8BE70BD704770470068034906
:100F5000884201D1FFF78EBB7047000000080040B7
:100F6000704770B5040004D094F84100002510B11A
:100F700006E0012070BD84F84050204600F024F8BF
:100F8000242084F841002068C16821F40051C16028
:100F9000204600F06BF92068016921F4904101615D
:100FA0002068416921F02A0141612068C16841F44B
:100FB0000051C1606564202084F8410084F842003B
:100FC0006563002070BD000030B585B0002400943A
:100FD00001940294039400681449884224D114486F
:100FE000816941F480418161816901F4804104910A
:100FF000816941F00401816180690E4D00F00400B7
:1010000004904FF4007000900220019003200390A0
:1010100069462846FFF726FA2815CDE900046946F7
:1010200028460294FFF71EFA05B030BD0038014093
:101030000010024000080140FEE70000094D4FF497
:101040007A74012220212846FFF708FB204600F091
:10105000F7FD002220212846FFF700FB204600F084
:10106000EFFDEEE7000C0140094D4FF4FA74012248
:1010700020212846FFF7F2FA204600F0E1FD002289
:1010800020212846FFF7EAFA204600F0D9FDEEE7D6
:10109000001801402DE9F04385B000242048009459
:1010A000019402940394816941F040018161816956
:1010B00001F040010491816941F00401816181697D
:1010C00001F004010491816941F0080181618069A6
:1010D000DFF8508000F008000490002220214046F4
:1010E000FFF7BCFADFF84090002220214846FFF7C6
:1010F000B5FA20250227012603970095CDE9016462
:1011000069464046FFF7AEF903970095CDE90164C3
:1011100069464846FFF7A6F905B0BDE8F083000030
:101120000010024000180140000C01400C4810B5AE
:101130000A4901604FF4E1314160002181600C22D5
:10114000C160C0E904128161C161FFF70AFF002894
:1011500003D0BDE81040FFF782B910BD0038014050
:1011600084000020FEE7FEE7FFF752B8FFF72EB835
:1011700000F02ABE30B58FB028216846FFF7D7F8B7
:1011800014210AA8FFF7D3F801210804CDE90010C3
:101190000024029402250491CDE907504FF4E01099
:1011A00009906846FFF726FC08B172B6FEE70F20EB
:1011B000CDE90A054FF48060CDE90C4002210AA870
:1011C0000E94FFF71BFB002801D072B6FEE70FB0AC
:1011D00030BD70470148FFF704BE0000CC0000207E
:1011E000F0B502681C4B1D4D1D4E1E4F1E4C4FF09E
:1011F000804C984209D0A04207D0604505D0A84253
:1012000003D0B04201D0B84204D122F0700E4A6837
:1012100042EA0E02984209D0A04207D0604505D0AC
:10122000A84203D0B04201D0B84203D122F44075A5
:10123000CA682A434D6922F080022A4302608A6804
:10124000C2620A688262984201D0A04201D1096953
:10125000016301214161F0BD002C01400004004008
:1012600000080040000C00400034014070B5044606
:1012700000680169E26821F440511143016121696C
:10128000A0680843616908432168CA6841F20C6399
:101290009A430243CA6020684169A26921F44071FF
:1012A000114341611E492068884202D1FFF76CFB5F
:1012B00001E0FFF759FB00EBC00101EB0012606891
:1012C00064218000B2FBF0F3B3FBF1F36FF018067A
:1012D0007343B2FBF0F5B2FBF0F605EB8305322366
:1012E00003EB0515B5FBF1F5B6FBF1F605F0F005DE
:1012F00005EB0615B2FBF0F6B2FBF0F0B0FBF1F037
:101300006FF01802504306EB800003EB0010B0FBB7
:10131000F1F0216800F00F002844886070BD0000E3
:1013200000380140FEE70907090E002804DB00F140
:10133000E02080F80014704700F00F0000F1E0207A
:1013400080F8141D704700001CB5FFF79BF9FFF7EC
:1013500011FFFFF79FFEFFF7E9FE02250024CDE90C
:1013600000546E022346324607A1094800F054FE9D
:10137000CDE900540023324606A1084800F04CFE97
:1013800000F0B4FCFEE700006C6564310000000072
:101390003D1000086C656432000000006910000810
:1013A0002DE9F0411E4C0F460546E6682068001DF9
:1013B00000F086FB38B9206890F82C100120884096
:1013C000216981432161681C15D1A7B115492268A3
:1013D0004868906023688268DA6022688368121D1A
:1013E0005A602268121D8260206841610868401CB2
:1013F0000860BDE8F08120683544B5424560216849
:1014000005D2E06BBDE8F041091D00F07ABBA06B8E
:10141000091D00F076FBA06A8542EAD2A562E8E7E2
:1014200010000020340400202DE9F041054600F0B2
:1014300081FB354CA068401CA0602068334F10B180
:10144000606930B32BE02560A068012827D1002611
:1014500006EB860007EB800000F045FB761C202E93
:10146000F6D32B4800F03FFB2948143000F03BFB3B
:101470002748283000F037FB25483C3000F033FB8C
:101480002348503000F02FFB2148A0631430E06364
:1014900005E02068E96AC06A884200D82560606A71
:1014A0000121401C6062E86A226981401143216188
:1014B00000EB800007EB80004068A8608168E9606D
:1014C0008268291D51608160E86A00EB800007EBAB
:1014D0008001696157F82010491C47F8201000F07E
:1014E00037FB606900280CD02068E96AC06A88422E
:1014F00007D208494FF080500860BFF34F8FBFF309
:101500006F8FBDE8F0810000100000206401002012
:10151000E403002004ED00E010B500F00BFB0E4CDE
:101520002068A0B90D4800F0DEFA0C48143000F035
:10153000DAFA0A48E0601430206100220C210A2007
:1015400000F058FC206010B105A100F039FBBDE8A7
:10155000104000F0FDBA00005000002048040020B8
:10156000546D72510000000030B4026C0B46002A2A
:101570000BD0C1681144C1608468A14201D30168E5
:10158000C16030BC1846FEF78DBE30BC704710B548
:101590000446006B00F0E6FA2046BDE8104000F07B
:1015A000E1BA00000E484FF42051420706D0C01D9A
:1015B0000B4920F00700411AC1F52051094A0023C8
:1015C0000144C2E900030839143A21F0070111600F
:1015D0004B600B600B1AC0E90013936053607047B7
:1015E0007004002078000020144E154CA6F52F77CB
:1015F0004FF08058DFF84C9012E000BF00F09AFAEC
:10160000F068C568281D00F05BFAA068401EA06065
:101610006068401E606000F09BFA2846FFF7B7FF45
:1016200060680028EAD138680128F9D9C9F8008033
:10163000BFF34F8FBFF36F8FF2E70000200400204D
:101640001000002004ED00E02DE9F0479946DDE9A7
:10165000096480466FF00303206B03EB8202089D50
:10166000104420F0070761B1002023180A5C83F8BA
:1016700034200A5C12B1401C1028F6D3002084F8F4
:101680004300202D00D31F25E562201D656400F076
:1016900035FA04F1180000F031FA2461C5F1200098
:1016A0006462A0614A464146384600F0F7F920607E
:1016B000002E00D03460BDE8F087000030B511493D
:1016C00000E011460A688242FBD34B685C188442F2
:1016D00003D1406818444860084643681C18944287
:1016E00009D1084C143C2468A24209D052681A441B
:1016F00042600A6812680260814200D0086030BD12
:101700000460F9E77800002070B5002441600B4DBB
:101710000061914206D8D11A8269914206D2011D18
:10172000286907E09A4203D2994201D3012403E0D9
:10173000011DE86800F0E5F9204670BD500000206A
:1017400010B5044600F0F6F9A06B28B15FF0000474
:1017500000F0FEF9204610BD0124F9E770B50646F9
:101760000D480D46C068C068C468201D00F0A8F987
:1017700094F82400410705D52A463146204600F05A
:10178000ABF803E000F0FE0084F824002046216A54
:10179000BDE8704008470000500000207FB5324E81
:1017A0005AE00098002857DB029C606910B1201DA8
:1017B00000F086F903A800F0B1F8054600980A2861
:1017C0004AD2DFE800F0490505282E3D0505282E00
:1017D00094F824002A4640F0010084F8240001997E
:1017E000A069019B01442046FFF78EFF38B394F8AF
:1017F0002400410707D50198A1692A4601442046E3
:1018000000F06AF803E000F0FE0084F82400216A8A
:101810002046884720E014F8240F00F0FE002070D6
:101820001AE094F824002B4640F0010084F82400CC
:101830000198A06141191A462046FFF765FF0BE0A9
:1018400094F82400810703D4204600F08BF903E0CC
:1018500000F0FE0084F8240000226946306800F0A1
:1018600037FB00289DD17FBD50000020F8B50D4604
:10187000064600F067FA684600F050F80446009803
:1018800010B100F0F5FCF8BD1148ADB1016909686F
:10189000D9B10025311B2A46006800F0AFF900F0ED
:1018A000E7FC0028EFD10B494FF080500860BFF3F0
:1018B0004F8FBFF36F8FF8BDA642EBD800F0D8FC76
:1018C00021463046FFF74AFFF8BD0125E2E7000058
:1018D0005000002004ED00E070B516460C460546A9
:1018E00004E0A869296A044428468847A869234671
:1018F000011932462846FFF707FF0028F1D170BDD5
:101900000548816B096821B1816BC96809688162EA
:1019100070474FF0FF31FAE7100000202DE9F04149
:10192000064600F0A7FB0E4C0546A068854214D27F
:101930004FF0FF3704E0C06839460068FFF70EFF3C
:10194000E06801680029F6D12169C4E9031001208B
:1019500030602846A560BDE8F0810020F8E700006F
:1019600050000020102080F31188BFF34F8FBFF389
:101970006F8FFEE7074CE068016841B1C068002145
:10198000D0F80000FFF772FFFFF708FFF3E701212F
:101990000020F7E7500000202DE9F041044600F058
:1019A000C9F894F9455004F1240609E0606A48B189
:1019B000304600F0F7FB08B100F062F96D1E6DB221
:1019C000002DF3DC4FF0FF3684F8456000F0C0F8DE
:1019D00000F0B0F894F9445004F1100709E02069D0
:1019E00048B1384600F0DEFB08B100F049F96D1E41
:1019F0006DB2002DF3DC84F84460BDE8F04100F0E6
:101A0000A7B8000070B50446002600F09BF9224DEF
:101A1000286808B9FFF7C6FDCCB304F00700C0F191
:101A20001000C1438C4232D8211800292FDD68688C
:101A300081422CD8184814300246146801E0204630
:101A4000144662688A4202D22268002AF7D12A68C4
:101A500094421CD006682268026060680836421A08
:101A6000102A04D9601842606160FFF727FE6168A0
:101A70006868401A6860AA68904200D2A86041F085
:101A80000040606000202060E868401CE86000F0D2
:101A9000EFFB304670BD00006400002010B5031F4E
:101AA0004FF080741C601B1F21F001011960191F89
:101AB000024B0B60143940380A6010BD65190008EC
:101AC000D0E9013201699A60D0E901235A604A687D
:101AD000824201D182684A60002202610868401E89
:101AE00008600868704700F108014FF0FF32C0E954
:101AF0000112C16001610021016070470021016194
:101B0000704730B50B685A1C02D000F1080202E0A1
:101B1000026904E02246546825689D42FAD9536858
:101B20004B6099608A60516008610168491C0160DE
:101B300030BD0000102080F31188BFF34F8FBFF33A
:101B40006F8F02480168491C0160704780000020C7
:101B500003490868401E086001D180F3118870476E
:101B60008000002070B500281BD0A0F10804606838
:101B7000002816DA2168002913D120F000406060A7
:101B800000F0E0F8074D6068696808446860204626
:101B9000FFF794FD2869401C2861BDE8704000F003
:101BA00067BB70BD640000204FF0E02000210161A0
:101BB0008161024941610721016170473F190100BC
:101BC00070B50022002915D00B4C002304EBC3058F
:101BD0006E68864202D104EBC30207E01AB954F8DA
:101BE000336006B92A465B1C0A2BEFD3002A01D0CA
:101BF000C2E9001070BD00001401002070B5154648
:101C00000E460446FFF796FF94F944100020491C45
:101C100001D184F8440094F94510491C01D184F89D
:101C20004500FFF795FFA06B28B92A46314604F11D
:101C3000240000F03BF82046BDE87040FFF7ACBE42
:101C400010B5020009D000F07DF800211046FFF722
:101C5000A7FB00F00DFB002807D104494FF080508E
:101C60000860BFF34F8FBFF36F8F10BD04ED00E02E
:101C700002490A6A0260C96841607047100000208A
:101C800001490120C86170471000002010B50C46C2
:101C9000054909681831FFF734FF2046BDE81040B8
:101CA0000121FFF77DBB000010000020F0B40C46BE
:101CB0000D4943680D68EB619D680E6835620D68DB
:101CC0009E68183575600D6818359D6009688862D2
:101CD0000168491C01600AB14FF0FF342046F0BC96
:101CE0001146FFF75DBB0000100000207CB51148D5
:101CF0000025CDE900502B4640220FA1104800F0EE
:101D00008BF90C4C2C3C012812D100F03FFB012830
:101D10000ED1102080F31188BFF34F8FBFF36F8F68
:101D20004FF0FF30A06201206061E56000F034F800
:101D3000206B7CBD3C00002049444C450000000065
:101D4000E91500080248416B491C416370470000D7
:101D5000100000200E48416B11B10121C161704794
:101D60000021C16101690B4AB1FA81F1C1F11F0182
:101D700001EB810102EB810101F108034A6852681D
:101D80004A609A4201D152684A60D1680160704746
:101D90001000002064010020094810B5016841F4DA
:101DA00070010160016841F070410160FFF7FCFEC5
:101DB000044900200860FEF71BFA002010BD000057
:101DC00020ED00E08000002010B5102080F3118885
:101DD000BFF34F8FBFF36F8F00F052F918B1044972
:101DE0004FF080500860002080F3118810BD000083
:101DF00004ED00E070B50E4605004FF0000418D069
:101E0000601EB0FBF5F0B04213D305FB06F010F1F5
:101E1000490F0ED84830FFF7F5FD040009D004F152
:101E2000480120463EB10160C0E90F56012100F093
:101E300005F8204670BD0060F6E700002DE9F0418E
:101E40000F4604004FF001063CD0E06BC8B3B51E4E
:101E5000B5FBF0F1206C814234D3FFF76BFED4E97F
:101E60000F20216802FB0011A1600021A1632168FD
:101E700061600A46D4E90F01401E00FB01212046A3
:101E8000E16000F8445F457004F110004FB1FFF7C6
:101E90002AFE04F12400FFF726FE00BFFFF758FEDC
:101EA00011E021690029F9D000F07CF90028F5D073
:101EB00006494FF080500860BFF34F8FBFF36F8F1C
:101EC000ECE7FFE700263046BDE8F08104ED00E0D6
:101ED0002DE9F7470026DFF8E48083B08A46044600
:101EE000B1464FF0805700BFFFF724FEA56BC5B188
:101EF00051462046FFF738FB6D1EA563206950B19F
:101F000004F1100000F04EF928B1C8F80070BFF3DA
:101F10004F8FBFF36F8FFFF71BFE012006B0BDE8A8
:101F2000F087059808B11EB106E0FFF711FE27E023
:101F30006846FFF79DFE0126FFF70AFEFFF702FF46
:101F4000FFF7F8FD94F94400401C01D184F8449057
:101F500094F94500401C01D184F84590FFF7F8FD45
:101F600005A9684600F02CF8002820460AD0FFF7A3
:101F700013FD00F07DF92046FFF7E2FB0028B3D007
:101F80000020CBE7FFF7DCFB90B104F124000599BA
:101F9000FFF77CFE2046FFF7FFFC00F069F9002800
:101FA000A2D1C8F80070BFF34F8FBFF36F8F9BE7CC
:101FB0002046FFF7F1FC00F05BF995E704ED00E047
:101FC0002DE9F0410C460546FFF7B4FD114EF268CD
:101FD0006B682168D01A4F1C0AD02F68D6F820C031
:101FE0000026674506D0934204D8012526600BE001
:101FF000002509E0814205D9081A20602846FFF72C
:1020000037FEF5E701252660FFF7A2FD2846BDE86B
:10201000F0810000100000202DE9FF5F8346DDE91C
:102020000E87994616468A469000FFF7EBFC05009E
:102030001DD05420FFF7E6FC040015D05421FEF714
:1020400076F925630021CDE90241CDE900874B46B1
:10205000324651465846FFF7F7FA2046FFF7E4F9B3
:10206000012004B0BDE8F09F2846FFF77BFD4FF04C
:10207000FF30F6E70148C0687047000010000020FC
:102080002DE9F041454C0026606B28B1A069401C49
:10209000A0613046BDE8F081E5686D1CE56008D1BF
:1020A000A06BE16BA163E063206A401C2062FFF734
:1020B00027FCA16A3A488D420FD34FF0000EA16B66
:1020C000096839B1A16BC968C9684A68954212D2DA
:1020D000A26202E04FF0FF31A1622168C96A01EB00
:1020E000810150F82100012800D90126E06900286B
:1020F000CFD00126CDE7D1E902724B69BA60D1E9B0
:1021000002277A605F680A1D974201D1CF685F603D
:10211000C1F814E01F687F1E1F60D1F828C0BCF111
:10212000000F15D0D1E907379F60D1E907377B60F1
:10213000DCF8047001F118039F4202D10B6ACCF85D
:102140000430C1F828E0DCF800305B1ECCF8003029
:10215000CB6A0127D4F810C09F4047EA0C072761DB
:1021600003EB830300EB83035B688B609F68CF60A6
:102170009F687A609A60CA6A02EB820200EB82036F
:102180004B6150F822305B1C40F82230C96A22684B
:10219000D26A914293D9012691E7000010000020F5
:1021A0006401002070B5C068C068D0E90732816A58
:1021B0009A60D0E907235A604B6800F118029342F5
:1021C00001D1036A4B60002383620C68641E0C60BB
:1021D00024494D6B01249DB1234D6B68C3619E68FA
:1021E00006629E6872609A6085622A68521C2A6044
:1021F000C06A0A68D26A904231D90120CC6170BDB0
:10220000D0E902654269B560D0E90256756056684A
:10221000051DAE4201D1C6685660436113685B1E5E
:102220001360C26A0E6904FA02F333430B610F4B69
:1022300002EB820203EB8202526882609668C660FB
:10224000966875609560C26A02EB820203EB8205B4
:10225000456153F822506D1C43F82250C8E7002016
:1022600070BD0000100000200C040020640100205C
:102270002DE9F04100242746FFF75CFC3F4D686BD9
:10228000401E6863686B002872D1A8683C4B00262A
:102290004FF00108F0BB6BE0D868C468D4E90721AF
:1022A000A06A9160D4E907125160426804F11801F4
:1022B0008A4201D1216A4160A6620168491E01601B
:1022C000D4E9022160699160D4E902125160426848
:1022D000211D8A4201D1E268426066610268521E95
:1022E0000260E26AD5F810C008FA02F040EA0C0079
:1022F000286102EB8200234A02EB80004068A06064
:10230000D0F808C0C4F80CC0D0F808C0CCF804104D
:10231000816000E011E0E06A00EB800002EB8001E8
:10232000616152F82010491C42F82010E06A2968C7
:10233000C96A884201D3C5F81C8018680028ABD14F
:102340000CB1FFF7DDFAAC6944B100BFFFF798FEAE
:1023500008B1C5F81C80641EF8D1AE61E86938B1D7
:102360000949012738070860BFF34F8FBFF36F8F0C
:10237000FFF7EEFB3846BDE8F081000010000020BA
:102380000C0400206401002004ED00E01CB50024D2
:10239000FFF7C2F80848006858B107490320091D33
:1023A000CDE900010023402204A10648FFF734FED6
:1023B000044620461CBD000050000020546D7220D1
:1023C000537663007519000801020203040506072D
:1023D00008090A0B0C0D0E0F101000000000000081
:1023E00000000102030406070809000000000102C2
:1023F00003040000142400080000002084000000F2
:102400006C01000898240008840000204C32000071
:10241000880100080100000010000000000000001A
:102420000024F40000000000000000000000000094
:10243000000000000000000000000000000000009C
:10244000000000000000000000000000000000008C
:10245000000000001F00000000000000000000005D
:10246000000000000000000000000000000000006C
:10247000000000000000000000000000000000005C
:10248000000000000000000000000000000000004C
:0824900000000000AAAAAAAA9C
:0400000508000131BD
:00000001FF
